:020000040800F2
:1000000000200020590C0008E90B0008EB0B000849
:1000100000000000000000000000000000000000E0
:10002000000000000000000000000000ED0B0008D0
:100030000000000000000000EF0B0008F10B0008BA
:10004000A90C000800000000A90C0008A90C000879
:10005000A90C0008A90C0008A90C0008A90C0008AC
:1000600000000000A90C0008A90C0008A90C000859
:10007000A90C0008A90C0008A90C00080000000049
:10008000A90C0008A90C000800000000A90C000839
:10009000A90C0008A90C0008A90C0008A90C00086C
:1000A000A90C0008A90C0008A90C0008A90C00085C
:1000B000A90C000800000000000000000000000083
:1000C00010B5064C2378002B07D1054B002B02D02E
:1000D000044800E000BF0123237010BD040000208D
:1000E00000000000040D0008044B10B5002B03D0E5
:1000F0000349044800E000BF10BDC04600000000F6
:1001000008000020040D0008002243088B4274D32D
:1001100003098B425FD3030A8B4244D3030B8B4208
:1001200028D3030C8B420DD3FF22090212BA030C11
:100130008B4202D31212090265D0030B8B4219D3F2
:1001400000E0090AC30B8B4201D3CB03C01A524112
:10015000830B8B4201D38B03C01A5241430B8B425A
:1001600001D34B03C01A5241030B8B4201D30B0343
:10017000C01A5241C30A8B4201D3CB02C01A52416A
:10018000830A8B4201D38B02C01A5241430A8B422D
:1001900001D34B02C01A5241030A8B4201D30B0216
:1001A000C01A5241CDD2C3098B4201D3CB01C01A30
:1001B000524183098B4201D38B01C01A524143093A
:1001C0008B4201D34B01C01A524103098B4201D328
:1001D0000B01C01A5241C3088B4201D3CB00C01A95
:1001E000524183088B4201D38B00C01A524143080D
:1001F0008B4201D34B00C01A5241411A00D2014632
:10020000524110467047FFE701B5002000F006F8A4
:1002100002BDC0460029F7D076E770477047C04658
:1002200010B5040000F066FCFA218900FFF76CFFAE
:1002300000F068F8012000222100404200F032F86E
:10024000002010BD10B5064A136810210B4313603F
:100250000020FFF7E5FF00F0AFFC002010BDC04616
:1002600000200240024A1368013313607047C04601
:1002700020000020014B18687047C0462000002075
:1002800030B583B00190FFF7F5FF0500019C631CBA
:1002900000D00134FFF7EEFF401BA042FAD303B0B9
:1002A00030BD000070B5002811DB8408134DC03448
:1002B000A400625903231840C000FC331E0086408E
:1002C000B24389010B4083401343635170BDC0B2F8
:1002D0000F220240083A920806329200084BD318C7
:1002E0005D6803242040C000FF2214008440A54321
:1002F00089010A4082402A435A60E7E700E100E0B2
:1003000000ED00E001380A4B98420FD8094A5060CE
:100310000948036A1B021B0AC02109060B4303623A
:100320000023936007331360002070470120FCE72F
:10033000FFFFFF0010E000E000ED00E0F0B5C64672
:1003400000B582B0002338E0032600E00026AE406E
:1003500035003D430234A400554EA551554C256847
:100360004246D4432E0026404A68D20302D5424674
:1003700015432E004F4D2E606D682E0026404A68B2
:10038000920302D5424615432E004A4D6E60AD6879
:100390002E0026404A68D20202D5424615432E005E
:1003A000444DAE60ED682C404A68920202D5424648
:1003B0002A4314003F4AD46001330A681400DC4029
:1003C00071D001259D402A409046F5D04C68022C02
:1003D00001D0122C0ED1DC080834A40027580726BF
:1003E0001E40B6000F22B24097430A69B240160081
:1003F0003E43265002685F0003242600BE40F643B9
:10040000324094464A681440BC406246144304603B
:100410004C68621E012A03D9112C01D0122C10D174
:1004200084683440A446CC68BC406246144384606F
:100430004468AC434A681209012515409D40254394
:100440004560C46826408C68BC403443C4604A6838
:10045000D200B1D5184DAE6901242643AE61AD6915
:100460002C400194019C9C08A51CAD00104EAF5976
:1004700003251D40AD000F26AE40B7439026F6057C
:10048000B04200D162E70D4EB04208D00C4EB042EF
:1004900007D00C4EB04200D156E7052657E701269B
:1004A00055E7022653E702B004BC9046F0BDC046B3
:1004B0000000014000040140001002400004004818
:1004C00000080048000C0048002A01D181627047F2
:1004D0008161FCE7436959404161704770B582B062
:1004E00004000368DB0726D5AE4B5A680C23134083
:1004F000042B18D0AB4B5A680C231340082B0ED09A
:100500006368012B3CD0002B51D1A64B1A68A64939
:100510000A401A601A68A5490A401A6036E0A14BE1
:100520005B68DB03ECD59F4B1B689B0303D56368BB
:10053000002B00D1ECE123689B0773D5994B5B68D6
:100540000C221A425DD0974B5A680C231340082B9B
:1005500053D0E368002B00D186E0924A1368012152
:100560000B431360FFF786FE05008E4B1B689B074D
:1005700071D4FFF77FFE401B0228F6D90320CAE1A1
:10058000884A116880235B020B4313606368002B69
:1005900025D0FFF76FFE0500824B1B689B03CAD472
:1005A000FFF768FE401B6428F6D90320B3E1052B52
:1005B00009D07C4B1A687C490A401A601A687B494A
:1005C0000A401A60E2E7774B19688022D2020A4398
:1005D0001A601968802252020A431A60D6E7FFF7B0
:1005E00049FE05006F4B1B689B03A4D5FFF742FE35
:1005F000401B6428F6D903208DE16A4B5B68DB035E
:10060000A7D4684B1B689B0704D5E368012B01D076
:10061000012080E163490B68F82293432269D200EC
:1006200013430B6023681B0744D5E369002B2ED0CE
:100630005C4A536A01210B435362FFF71BFE05001E
:10064000584B5B6A9B0735D4FFF714FE401B02280A
:10065000F6D903205FE153490B68F82293432269DE
:10066000D20013430B60DDE74E4A136801218B4330
:100670001360FFF7FFFD05004A4B1B689B07D1D5B0
:10068000FFF7F8FD401B0228F6D9032043E1454A55
:10069000536A01218B435362FFF7ECFD0500414B88
:1006A0005B6A9B0706D5FFF7E5FD401B0228F6D9DC
:1006B000032030E123685B0700D47FE0394BDB691E
:1006C000DB001DD4374AD169802040050143D16148
:1006D000D36903400193019B0125354B1B68DB0562
:1006E00010D5A368012B21D0002B36D12D4B1A6ACF
:1006F00001218A431A621A6A03318A431A621AE094
:100700000025EAE72A4A116880235B000B43136047
:10071000FFF7B0FD0600264B1B68DB05E1D4FFF7B1
:10072000A9FD801B6428F6D90320F4E01D4A136A52
:1007300001210B431362A368002B24D0FFF79AFD1D
:100740000600184B1B6A9B0736D4FFF793FD801BEE
:10075000184B9842F5D90320DDE0052B09D0114B49
:100760001A6A01218A431A621A6A03318A431A6299
:10077000E1E70C4B1A6A04210A431A621A6A033928
:100780000A431A62D7E7FFF775FD0600054B1B6A9F
:100790009B0711D5FFF76EFD801B064B9842F5D9DC
:1007A0000320B8E000100240FFFFFEFFFFFFFBFF49
:1007B0000070004088130000012D33D02368DB0651
:1007C00010D56369012B33D0053351D1544A536B93
:1007D00004218B435363536BF4318B43A169C900EC
:1007E0000B435363236A002B00D193E04C4A5168BA
:1007F0000C220A40082A00D18FE0022B4FD0484A31
:10080000136848490B401360FFF734FD0400444B64
:100810001B689B017AD5FFF72DFD001B0228F6D936
:10082000032078E03E4AD3693F490B40D361C5E7D6
:100830003B4B5A6B04210A435A635A6B03390A43F0
:100840005A63FFF717FD0500354B5B6B9B0706D41A
:10085000FFF710FD401B0228F6D903205BE030496A
:100860004B6BF8229343A269D20013434B63B9E761
:100870002B4B5A6B04210A435A635A6B03398A4340
:100880005A63FFF7F7FC0500254B5B6B9B07A9D567
:10089000FFF7F0FC401B0228F6D903203BE0204A7A
:1008A000136820490B401360FFF7E4FC05001C4B64
:1008B0001B689B0106D5FFF7DDFC401B0228F6D91B
:1008C000032028E0164BDA6A0F218A43E16A0A43C3
:1008D000DA625A6815490A40A16A606A01430A430C
:1008E0005A601968802252040A431A60FFF7C2FC5A
:1008F00004000B4B1B689B0106D4FFF7BBFC001BDD
:100900000228F6D9032006E0002004E0002002E0DF
:10091000012000E0002002B070BD0120FBE7C046CE
:1009200000100240FFFFFFFEFFFFFFEFFFFFC2FFCF
:1009300030B589B004AA174B180032C832C2110072
:1009400002680A606A46103313CB13C21B68136037
:10095000114B5A680C231340082B19D1910C073303
:10096000194004A8445C0C49C96A0B406946C95C3B
:10097000D30308D463011B1B9801C01AC0000419DB
:10098000200209B030BD0548FFF7BEFB6043F8E721
:100990000248F6E71C0D00080010024000127A0021
:1009A00070B505000C004D4B1A68012313408B42B3
:1009B0000BD24A490B680122934323430B600B6817
:1009C0001A40A24201D0012070BD2B689B0706D5BA
:1009D000434A5368F0218B43A9680B4353602B684B
:1009E000DB074BD56B68012B20D0022B24D03C4A6F
:1009F000126892076FD53A494A680320824313432D
:100A00004B60FFF737FC06006B68012B1AD0022BF6
:100A100026D0334B5B680C221A422FD0FFF72AFCFA
:100A2000801B304B9842F4D90320CDE72C4A126842
:100A30009203E0D40120C7E7294A12689201DAD470
:100A40000120C1E7264B5A680C231340042B15D014
:100A5000FFF710FC801B234B9842F3D90320B3E728
:100A60001F4B5A680C231340082B07D0FFF702FCDA
:100A7000801B1C4B9842F3D90320A5E7174B1A683B
:100A800001231340A3420BD914490B68012293435D
:100A900023430B600B681A40A24201D0012093E768
:100AA0002B685B0706D50E4A53680F490B40E9686F
:100AB0000B435360FFF73CFF094B5A6812090F23A1
:100AC00013400A4AD35CD840094B18600020FFF756
:100AD000A7FB002078E7012076E7C046002002400F
:100AE0000010024088130000FFF8FFFF3C0D0008D3
:100AF00000000020014B18687047C046000000202D
:100B000010B586B01422002101A800F0F3F80F4AB6
:100B10005169802080020143516153690340009371
:100B2000009B9024E405002220212000FFF7CCFC4C
:100B3000202301931F3B029300230393049301A9F5
:100B40002000FFF7FBFB06B010BDC04600100240BE
:100B500000B591B02C22002105A800F0CBF810229E
:100B60000021684600F0C6F802230493013B079376
:100B70000F33089304A8FFF7B1FC07230093002369
:100B800001930293039300216846FFF709FF11B018
:100B900000BD000010B5FFF755FBFFF7D9FFFFF7C9
:100BA000AFFF90202021C005FFF794FC0148FFF71C
:100BB00067FBF6E78813000082B00A4B99690122AF
:100BC0001143996199690A400092009ADA6980217B
:100BD00049050A43DA61DB690B400193019B02B0CE
:100BE0007047C046001002407047FEE770477047EC
:100BF00010B5FFF737FB10BD114B1A6801210A43EE
:100C00001A605A680F4802405A601A680E4802403B
:100C10001A601A680D4802401A605A680C4802406F
:100C20005A60DA6A0F208243DA621A6B094802407E
:100C30001A635A6B8A435A6300229A607047C0460F
:100C4000001002400CB8FF08FFFFF6FEFFFFFBFF9D
:100C5000FFFFC0FFECFEFFFF0D4885460D480E4923
:100C60000E4A002302E0D458C4500433C4188C4206
:100C7000F9D30B4A0B4C002301E013600432A2426B
:100C8000FBD3FFF7B9FF00F011F8FFF783FFFEE792
:100C90000020002000000020040000205C0D00085F
:100CA0000400002024000020FEE7000070B50026AC
:100CB0000C4D0D4C641BA410A64209D1002600F077
:100CC00021F80A4D0A4C641BA410A64205D170BD40
:100CD000B300EB5898470136EEE7B300EB5898475E
:100CE0000136F2E7540D0008540D0008540D0008B9
:100CF000580D000803001218934200D17047197074
:100D00000133F9E7F8B5C046F8BC08BC9E46704709
:0C0D1000F8B5C046F8BC08BC9E46704711
:100D1C0002030405060708090A0B0C0D0E0F101030
:100D2C000102030405060708090A0B0C0D0E0F102F
:100D3C00000000000000000001020304060708097F
:080D4C00000000000102030495
:040D5400E9000008AA
:040D5800C1000008CE
:040D5C0000127A0007
:0400000508000C598A
:00000001FF
